:020000040800F2
:100000007007002005010008953C00085F330008D8
:100010002F3A000899080008154A0008000000005F
:10002000000000000000000000000000BB3E0008CF
:100030004F09000800000000AD3C0008FB3F00082D
:100040001F0100081F0100081F0100081F01000810
:100050001F0100081F0100081F0100081F01000800
:100060001F0100081F0100081F0100081F010008F0
:100070001F0100081F0100081F0100081F010008E0
:100080000D090008190900081F0100081F010008D8
:100090001F0100081F0100081F010008590900087E
:1000A0001F0100081F0100081F0100081F010008B0
:1000B0005940000865400008714000081F01000811
:1000C0001F0100081F0100081F0100081F01000890
:1000D0001F0100081F010008094A00081F0100084D
:1000E000510900081F0100081F010008DFF810D0A7
:1000F00000F0C4FA004800473D550008AFF3008007
:10010000700700200648804706480047FEE7FEE7E4
:10011000FEE7FEE7FEE7FEE7FEE7FEE7FEE7FEE7B7
:1001200057400008ED000008202A04DB203A21FA9D
:1001300002F00021704721FA02F3D040C2F1200200
:100140009140084319467047D2B201E000F8012BF4
:10015000491EFBD270470022F6E710B513460A4647
:1001600004461946FFF7F0FF204610BD421C10F868
:10017000011B0029FBD1801A704780EA010210B5EB
:1001800002F00043400022D04A001FD0010E01EBD4
:100190001261C0F35600C2F3560240F4000042F46C
:1001A0000002A0FB022000047F39140400D0401C90
:1001B00050EA124001D44000491EC2B20C0604EBC2
:1001C000D010401C4008802A02D003E0002010BD5F
:1001D00020F00100002900DA0020184310BD96230A
:1001E0000022114600F064B820F00040C10DC0F3B9
:1001F000160040F400007F2901DA0020704796299C
:1002000003DCC1F19601C8407047963988407047B9
:1002100030B50B46014600202022012409E021FAD6
:1002200002F59D4205D303FA02F5491B04FA02F5D3
:100230002844151EA2F10102F1DC30BD2DE9F05F6A
:100240000546002092469B46884606468146402445
:100250001BE02846414647462246FFF765FF5346C6
:100260005A46C01A914110D311461846224600F052
:1002700017FA2D1A67EB01084F462246012000218C
:1002800000F00EFA17EB00094E41201EA4F1010404
:10029000DFDC484631462A464346BDE8F09F002948
:1002A000A8BF7047401C490008BF20F001007047FC
:1002B00010B4B0FA80FC00FA0CF050EA010404BF5C
:1002C00010BC704749B1CCF1200421FA04F411FAB2
:1002D0000CF118BF012121430843A3EB0C01CB1DF6
:1002E0004FEA00614FEA102042BF002010BC704767
:1002F00000EBC35010440029A4BF10BC7047401C41
:10030000490008BF20F0010010BC70472DE9FE4FE6
:10031000804681EA0300C00F0C46009021F00041A6
:1003200023F00045B8EB0200A94105D24046214622
:1003300090461C460B46024623F00040104347D02F
:10034000270DC7F30A00C3F30A510290401A019027
:1003500040286BDAC3F3130040F4801B00989246E8
:1003600020B10023D2EB030A63EB0B0B0198594633
:10037000C0F14002504600F093F906460D46504643
:100380005946019A00F09BF910EB080061410024E6
:1003900087EA115284EAE7731A4340D0009A62B3A5
:1003A000019A012A4FEA075215DC001B61EB02019A
:1003B0004FF0004202EA0752CDE90042001C41F52D
:1003C000801132462B4600F09BF903B0BDE8F08F58
:1003D00040462146F9E7001B61EB0201001C41F594
:1003E000801300185B412018A2F5001747EB0301AA
:1003F00040EAD570B6196D4111E06D084FEA360636
:1004000045EAC0754FEA0752001B61EB0201001C70
:1004100041F5801149084FEA300000195141324638
:100420002B4603B0BDE8F04F00F05BB90098012205
:1004300040000023D0EB020263EBE07300982146FA
:100440004FEAE074B8EB000061EB0401E9E783F0E8
:1004500000435BE781F0004158E72DE9FE4F81EA58
:10046000030404F0004421F0004100944FF0000B1D
:1004700023F0004350EA01045ED052EA03045BD04B
:10048000C3F30A54C1F30A552C44A4F2F334019483
:10049000A0FB0254C1F3130141F48011C3F3130311
:1004A00043F4801301FB024400FB034E840A970AC5
:1004B00044EA815447EA8357A4FB076802958D0AF2
:1004C00005FB07854FEA932C04FB0C542705029D7E
:1004D0004FEA065847EA1637B5EB08056EEB070CEE
:1004E000870E920E47EA811742EA8312A7FB0201A8
:1004F000B6EB0B0164EB00042B0D43EA0C335E18E2
:1005000044EB1C50DA465146E7FB0201C5F31304E5
:100510004FEA0B3343EA14534FEA0432019C43EA97
:100520000603A4F10C040294009CCDE900B400F091
:10053000E7F803B0BDE8F08F00200146F9E72DE9A8
:10054000F04D81EA030404F0004B21F0004514460D
:100550004FF0000A23F0004150EA050220D054EA8F
:1005600001021DD0C5F30A570246C5F31303C1F3B8
:100570001300C1F30A5640F4801543F48013A7EB2F
:100580000608101BD64608F2FD3873EB050002D3AF
:1005900008F1010801E092185B41B8F1000F03DA9D
:1005A00000200146BDE8F08D00204FF48011064682
:1005B00084460EE0171B73EB050705D3121B63EB94
:1005C000050306434CEA010C49084FEA3000921833
:1005D0005B4150EA0107EDD152EA030012D082EAF2
:1005E000040083EA0501084305D0101BAB4106D285
:1005F0000122002306E000224FF0004302E06FF0EA
:10060000010253101AEB06004CEB085110EB0A00E4
:1006100041EB0B01BDE8F04D00F063B8C1F30A52A5
:10062000C1F3130140F2FF3341F480119A4202DA20
:1006300000200146704740F233439A42A2F233420F
:1006400002DC5242FFF770BD00F02AB830B5041E3C
:1006500071F1000404DB4FF00044404264EB0101FF
:10066000141E73F1000405DB1C464FF00043524298
:1006700063EB0403994208BF904230BD064C074D1E
:1006800006E0E06840F0010394E807009847103462
:10069000AC42F6D3FFF72EFDF457000814580008BB
:1006A000202A04DB203A00FA02F100207047914032
:1006B000C2F1200320FA03F3194390407047202A27
:1006C00006DBCB17203A41FA02F043EAE07306E07A
:1006D00041FA02F3D040C2F120029140084319468A
:1006E000704710B5141E73F1000408DA401C41F184
:1006F000000192185B411A4301D120F0010010BDA6
:100700002DE9F04D92469B4611B1B1FA81F202E01B
:10071000B0FA80F220329046FFF7C2FF04460F463F
:1007200040EA0A0041EA0B0153465A46084313D0F7
:10073000114653EA010019D0C8F140025046FFF7B4
:10074000F3FC05460E46504659464246FFF7A8FFC1
:10075000084305D0012004E020463946BDE8F08D6D
:100760000020054346EAE0762C4337430A986305A8
:10077000E40AA0EB08000022FD0A44EA47540A30CC
:1007800002D500200146E9E7010510196941DDE9BC
:10079000084500196941BDE8F04DA2E770B5254E46
:1007A000254D0024052C37D2DFE804F0030D172176
:1007B0002B000121304600F069FD01282FD1287857
:1007C00040F0010026E00221304600F05FFD0128E4
:1007D00025D1287840F002001CE00421304600F0CA
:1007E00055FD01281BD1287840F0040012E00821B3
:1007F000304600F04BFD012811D1287840F0080068
:1008000008E001210D4800F041FD012807D12878BA
:1008100040F01000287002E0094881688847641C95
:10082000E4B2052CBED32978BDE8704005A004F0E1
:10083000F3B80000001001407C00002000080140D7
:10084000A4000020626F6172642061646472657349
:10085000732069732025640D0A000000024C0120FA
:1008600061688847FBE700003800002010B50022CF
:100870000649074804F020FE064A0021044804F017
:1008800047FDBDE81040024804F02CBE7D5500082D
:100890001003002061330008FEE7000070B50D4C26
:1008A000E0781E2815D303F0BDF900252574A57343
:1008B0000949E573E5740320087008480169084890
:1008C000884708A004F0A8F8658165712571A571B5
:1008D000E57070BD1000002038000020640000208A
:1008E000C0000020B7A2D2A9BDE1CAF8A3ACB7B539
:1008F000BBD8CAD5BEDD0D0A000000000022402191
:10090000014800F01FBD000000080140014800F050
:1009100045B9000088020020014800F03FB90000FE
:10092000CC02002030B590F840500124AC40C56B9B
:100930006C60046863604368102B036803D099609F
:100940000068C26030BD9A600068C16030BD704709
:100950004FF4006000F0FEBA10B5402000F0FAFA43
:10096000802000F0F7FABDE810404FF4807000F0EE
:10097000F1BA704772B6024C60688047FCE700002D
:10098000A40000207047000070B5094D4FF480644A
:1009900000222146284600F0D5FC02F0BBFF0646A7
:1009A00001222146284600F0CDFC304670BD0000F3
:1009B0000010014070B5094D4FF40064002221463B
:1009C000284600F0BFFC02F0A5FF064601222146A2
:1009D000284600F0B7FC304670BD00000010014012
:1009E00070B5094D4FF4805400222146284600F08E
:1009F000A9FC02F08FFF064601222146284600F09E
:100A0000A1FC304670BD00000010014070B5094DDA
:100A10004FF4004400222146284600F093FC02F0E7
:100A200079FF064601222146284600F08BFC30461D
:100A300070BD00000008014070B5094D4FF400542E
:100A400000222146284600F07DFC02F063FF0646A6
:100A500001222146284600F075FC304670BD00009A
:100A60000010014070B5094D4FF48044002221462A
:100A7000284600F067FC02F04DFF064601222146A1
:100A8000284600F05FFC304670BD000000100140B9
:100A900070B5094D4FF4004400222146284600F06D
:100AA00051FC02F037FF064601222146284600F09D
:100AB00049FC304670BD00000010014010B590F8B0
:100AC00021100022022905D00421816380F8202012
:100AD000012010BD01680B6823F00E030B60016854
:100AE0000B6823F001030B6090F84030012404FAF6
:100AF00003F1C36B596080F8214080F82020104634
:100B000010BD000010B590F821100024022903D078
:100B10000421816301243DE001680A6822F00E028D
:100B20000A6001680A6822F001020A601A4A016834
:100B3000914201D1012121E0174A1432914201D1A1
:100B400010211BE0144A2832914201D1891515E089
:100B5000114A3C32914201D189140FE00E4A5032C1
:100B6000914202D14FF4803108E00B4A6432914245
:100B700002D14FF4801101E04FF08071064A083A2B
:100B80005160012180F82110002180F82010416B74
:100B900001B18847204610BD080002402DE9F05FF2
:100BA000C16B0B6801680A68046C4FF0040C0CFA06
:100BB00004FC4A4DDFF828A14A4E4B4FDFF82CB118
:100BC000DFF82CE11CEA030F2DD05FEA427C2AD526
:100BD0000A68920603D40A6822F004020A600168D7
:100BE000A94201D1042119E0514501D1402115E06C
:100BF000B14202D14FF4806110E0B94202D14FF40A
:100C000080410BE0594502D14FF4802106E0714547
:100C100002D14FF4800101E04FF080612F4A083A81
:100C20005160C16A3BE04FF0020808FA04F818EA84
:100C3000030F4FF000094FF0010C35D05FEA8278C6
:100C400032D50A68920605D40A6822F00A020A60C0
:100C500080F821C00168A94201D1022119E0514563
:100C600001D1202115E0B14202D14FF4007110E012
:100C7000B94202D14FF400510BE0594502D14FF473
:100C8000003106E0714502D14FF4001101E04FF050
:100C90000071124A083A516080F82090816A002958
:100CA0001AD0BDE8F05F08470825A5401D4213D0C3
:100CB000120711D50A6822F00E020A6090F840105F
:100CC000C26B0CFA01F15160C0F838C080F821C045
:100CD00080F82090016BE2E7BDE8F09F0800024039
:100CE0001C00024030000240440002405800024014
:100CF0006C00024070B504007ED04A4920688842EA
:100D00001BD048491431884217D0464928318842BF
:100D100013D044493C3188420FD042495031884277
:100D20000BD040496431884207D03E49783188422F
:100D300003D09A213CA004F0E5FA606840B1102885
:100D400006D0B0F5804F03D09B2137A004F0DAFA2B
:100D5000A068402804D018B19C2133A004F0D2FA36
:100D6000E068802804D018B19D212FA004F0CAFAB1
:100D7000206948B1B0F5807F06D0B0F5007F03D080
:100D80009E2129A004F0BEFA606948B1B0F5806FD9
:100D900006D0B0F5006F03D09F2123A004F0B2FA73
:100DA000A06928B1202803D0A0211FA004F0AAFA2E
:100DB000E06960B1B0F5805F09D0B0F5005F06D0A2
:100DC000B0F5405F03D0A12117A004F09BFA01CC3D
:100DD0001449142249420144B1FBF2F18900E16354
:100DE00010490839A16302216177026843F6F07166
:100DF0008A43D4E9001300E012E01943D4E9023534
:100E00002B4319432369194363691943A3691943A0
:100E1000114301600020606301216177207770BD7C
:100E2000012070BD080002402E2E2F4472697665A5
:100E300072732F53544D3332463178785F48414CAA
:100E40005F4472697665722F5372632F73746D33CA
:100E500032663178785F68616C5F646D612E630023
:100E60002DE9F041884604460025581E4FF6FF71D3
:100E70001E461746884204D340F26F111DA004F0AD
:100E800041FA94F8200001280DD0012084F82000B8
:100E900094F821100020012907D084F820000225B1
:100EA0002846BDE8F0810220FBE7022184F82110EA
:100EB000A0632068016821F00101016033463A46D1
:100EC00041462046FFF72EFDE06A002820680168B1
:100ED00002D041F00E0106E021F00401016020681B
:100EE000016841F00A0101602068016841F00101D8
:100EF0000160D5E72E2E2F447269766572732F53E9
:100F0000544D3332463178785F48414C5F447269C2
:100F10007665722F5372632F73746D333266317836
:100F2000785F68616C5F646D612E630070B5044624
:100F300000F03EFA0546601C02D0044800780444E4
:100F400000F036FA401BA042FAD370BD000000202A
:100F500070470000044910B50A68024202D00860D8
:100F6000FFF7F6FF10BD0000140401402DE9F84F13
:100F7000DFF898A24FF00008DFF894B20C4605465F
:100F8000474650450ED05D450CD0A248854209D059
:100F9000A148854206D0A148854203D0BD21A0A02A
:100FA00004F0B0F920680104090C01D0000C03D052
:100FB000BE219BA004F0A6F9606800281FD001287C
:100FC000FCD01128FAD00228F8D01228F6D0A34974
:100FD0008842F3D0A2498842F0D0A2498842EDD09D
:100FE000A1498842EAD0A1498842E7D0A049884275
:100FF000E4D00328E2D0BF2189A004F083F9FDE00A
:10100000012000FA08F906EA09064E457ED1554549
:101010000ED05D450CD07F48854209D07E48854280
:1010200006D07E48854203D0CD217DA004F06AF928
:101030008A4A6068811A904258D00EDC032870D02A
:1010400006DC002852D0012819D002286AD131E0EC
:10105000112821D0122865D13AE0B1F5881F45D07A
:1010600006DCB1F5803F41D0B1F5801F5AD13DE09B
:10107000B1F5001F3AD0B1F5041F53D136E0E06856
:10108000022807D0012805D0032803D0D52164A069
:1010900004F038F9E76845E0E068022807D0012845
:1010A00005D0032803D0DC215DA004F02BF9E7680C
:1010B0003F1D37E0E068022807D0012805D003284B
:1010C00003D0E32156A004F01DF9E768083729E0B2
:1010D000E068022807D0012805D0032803D0EA21C0
:1010E0004FA004F00FF9E7680C371BE0A06890B13F
:1010F000012812D0022807D0F72149A004F002F9F4
:10110000A06840B1012808D0082701E074E008E099
:10111000C5F8149006E0042704E00827C5F81090ED
:1011200000E00027FF2E01D8294601E005F1040167
:101130004FEA880001D9A0F120000A684FF00F03A0
:1011400003FA00FC22EA0C0207FA00F042EA00026D
:101150000A606068C0004FD54648816941F00101CE
:101160008161806928F0030100F00100009042488D
:101170000A18D2F808C04FEA8870010F8B402CEA99
:10118000030C554501D100200EE05D4501D1012041
:101190000AE02048854201D1022005E01E48854230
:1011A00001D1032000E00420884040EA0C00906058
:1011B0006068C0033148016801D5314300E0B143A4
:1011C0000160606880032E48016801D5314300E06A
:1011D000B14301606068C0022A48016801D531430B
:1011E00000E0B1430160606880022748016801D5D2
:1011F000314300E0B143016008F10108266836FA86
:1012000008F07FF4FDAEBDE8F88F00000008014053
:10121000000C014000100140001401400018014082
:101220002E2E2F447269766572732F53544D3332CC
:10123000463178785F48414C5F4472697665722F19
:101240005372632F73746D3332663178785F6861DF
:101250006C5F6770696F2E63000000000000111062
:1012600000002110000031100000121000002210B8
:101270000000321000100240000001400004014054
:1012800004040140080401400C04014070B50C0046
:10129000054604D14FF4DA7103A004F033F8A868CE
:1012A000204000D0012070BD2E2E2F44726976653B
:1012B00072732F53544D3332463178785F48414C26
:1012C0005F4472697665722F5372632F73746D3346
:1012D00032663178785F68616C5F6770696F2E6322
:1012E0000000000070B50C00054604D14FF4F67103
:1012F00005A004F007F8E96824EA0100214040EA6B
:101300000140286170BD00002E2E2F447269766561
:1013100072732F53544D3332463178785F48414CC5
:101320005F4472697665722F5372632F73746D33E5
:1013300032663178785F68616C5F6770696F2E63C1
:101340000000000070B515460C00064604D14FF4AD
:10135000EA7108A003F0D6FF45B1012D04D040F298
:10136000D51104A003F0CEFF346170BD20043061BC
:1013700070BD00002E2E2F447269766572732F5354
:10138000544D3332463178785F48414C5F4472693E
:101390007665722F5372632F73746D3332663178B2
:1013A000785F68616C5F6770696F2E630000000092
:1013B00001488068704700000000002002488168F2
:1013C000027811448160704700000020074810B582
:1013D000016841F010010160032000F0C7F800200F
:1013E00000F006F800F024F8002010BD00200240B4
:1013F00070B50D4D04464FF47A712878B1FBF0F0CA
:101400000A490968B1FBF0F000F0B5FC48B9102CAE
:1014100007D200222146501E00F05AF800206C60CE
:1014200070BD012070BD0000000000200C000020F5
:101430000C4808B5816941F001018161816901F0C1
:1014400001010091C16941F08051C161C069064943
:1014500000F080500090486820F0E06040F000709C
:10146000486008BD001002400000014010B50400B3
:1014700003D5BE2107A003F045FF002C09DB04F0D3
:101480001F01012088406109890001F1E021C1F8B4
:10149000000110BD2E2E2F447269766572732F5392
:1014A000544D3332463178785F48414C5F4472691D
:1014B0007665722F5372632F73746D333266317891
:1014C000785F68616C5F636F727465782E6300008B
:1014D00070B514460D460646102A03D3AA2113A060
:1014E00003F010FF102D03D3AB2110A003F00AFF6F
:1014F0001D480068C0F30223C3F10700042800D987
:101500000420191D072901D2002300E0DB1E01225F
:1015100002FA00F1491E294099409A40521E224089
:101520003046BDE87040114303F086BA2E2E2F449A
:101530007269766572732F53544D33324631787821
:101540005F48414C5F4472697665722F5372632F16
:1015500073746D3332663178785F68616C5F636F86
:10156000727465782E6300000CED00E010B504463F
:1015700007280BD0062C09D0052C07D0042C05D049
:10158000032C03D0922108A003F0BCFE154A04F0FE
:10159000070110684FF6FF03184040EA0120124986
:1015A0000843106010BD00002E2E2F44726976652E
:1015B00072732F53544D3332463178785F48414C23
:1015C0005F4472697665722F5372632F73746D3343
:1015D00032663178785F68616C5F636F72746578CA
:1015E0002E6300000CED00E00000FA0570470000DB
:1015F0002DE9F0470D4604007DD02068C1070AD1CF
:10160000810708D4410706D4000704D44FF44E7173
:1016100072A003F077FE45B1012D06D0022D04D053
:1016200040F239316DA003F06DFEDFF8E881D8F8A3
:10163000000000F00700A8420CD2D8F8001021F0FA
:1016400007012943C8F80010D8F8000000F007008F
:10165000A84277D12068704E810729D5400703D56D
:10166000706840F4E06070602078000703D570680F
:1016700040F460507060A068A0B1802812D090281B
:1016800010D0A0280ED0B0280CD0C0280AD0D02866
:1016900008D0E02806D0F02804D040F25F314FA0F7
:1016A00003F030FE7068A16820F0F000084370601D
:1016B0002078C00735D0606868B101281CD00228A6
:1016C0001DD040F2663145A003F01CFE6068012881
:1016D00012D0022813D030688007002832DA7068F0
:1016E000616820F0030008437060FFF761FE074661
:1016F00041F288390EE025E030688003EDE730687C
:101700008001EAE7FFF754FEC11B494502D90320D7
:10171000BDE8F0877068616800F00C00B0EB810FE5
:10172000F0D1D8F80010404601F00701A9420BD9CA
:10173000016821F0070129430160006800F00700FB
:10174000A84201D00120E3E720784FF480654007EC
:101750004FF4A0674FF4C0684FF4E06914D5E06817
:1017600060B1A8420AD0B84208D0404506D04845EA
:1017700004D04FF4697119A003F0C4FD7068E168EA
:1017800020F4E060084370602078000715D52069D8
:1017900060B1A8420AD0B84208D0404506D04845BA
:1017A00004D040F2AB310DA003F0ACFD70682169AC
:1017B00020F4605040EAC100706000F05BF871688E
:1017C000164AC1F30311515CC84015490860154819
:1017D0000068FFF70DFE00209AE700002E2E2F4430
:1017E0007269766572732F53544D3332463178786F
:1017F0005F48414C5F4472697665722F5372632F64
:1018000073746D3332663178785F68616C5F7263D0
:10181000632E63000020024000100240DC570008E5
:101820000C0000200400002001490120C86470471A
:10183000000042420448054900684968044AC1F36F
:101840000221515CC84070470C000020001002408B
:10185000EC5700080448054900684968044AC1F388
:10186000C221515CC84070470C00002000100240AB
:10187000EC57000812A085B00FC88DE80F0014A027
:10188000144B006804905968134801F00C02042AB4
:1018900010D0082A0ED1C1F38342C9031DF80200FB
:1018A0000AD5596804AAC1F34041515C0A4A504321
:1018B000B0FBF1F005B0704708494843FAE7000073
:1018C00002030405060708090A0B0C0D0E0F101081
:1018D000010200000010024000127A0000093D00E1
:1018E00010B5044CA068000603D5FFF77FFE8020EA
:1018F000A07210BD001002402DE9F84F04007DD009
:10190000DFF8EC83FB4D20684FF0010B4FF000092E
:101910004FF4803A60B1C1070DD1810761D401074E
:101920006DD440076CD440F26711F3A003F0EAFCD9
:101930002078C00752D060684FF4A02640B15045CF
:1019400006D0B04204D040F26D11EBA003F0DAFCF7
:101950006868C0F38100012807D06868C0F381007F
:10196000022809D16868C00306D52868800335D5E8
:1019700060680028C3D031E06068504503D1286812
:1019800040F4803009E008B1B0420DD0286820F45E
:1019900080302860286820F480202860606888B142
:1019A000FFF706FD064609E0286840F4802028601D
:1019B000E5E7FFF7FDFC801B642875D828688003E5
:1019C000F7D50BE0FFF7F4FC064604E0FFF7F0FC68
:1019D000801B6428F1D828688003F7D4207880071A
:1019E0004DD5206930B1012804D040F2A111C2A028
:1019F00003F088FC60691F2808D902E096E041E006
:101A000079E04FF4D171BCA003F07CFC686810F061
:101A10000C0F07D06868C0F38100022809D16868FC
:101A2000C00306D42868800713D5206901287DD11A
:101A30000FE02069A8B1C8F800B0FFF7B9FC06466E
:101A400004E0FFF7B5FC801B0228B6D828688007A1
:101A5000F7D52868616920F0F80040EAC1002860E5
:101A60000DE0C8F80090FFF7A3FC064604E0FFF77E
:101A70009FFC801B0228A0D828688007F7D4207814
:101A8000000735D5AA4EA06920B3012806D04FF42F
:101A9000F17199A003F036FCA069D8B1C6F800B086
:101AA000FFF786FC064605E04DE1FFF781FC801B51
:101AB00002288FD8686A8007F7D59E484FF4FA51FC
:101AC0000068B0FBF1F0009000BF0098411E00914B
:101AD000FAD20DE0C6F80090FFF76AFC064604E073
:101AE000FFF766FC801B0228AFD8686A8007F7D42E
:101AF0002078400769D5E068002740B1012806D06A
:101B0000052804D040F211217BA003F0FBFBE8691B
:101B1000C00008D4E86940F08050E861E869012716
:101B200000F0805000908448016800E01FE1C90582
:101B300010D4016841F480710160FFF739FC06465A
:101B400004E0FFF735FC801B642894D87A480068CD
:101B5000C005F6D5E06801280AD008B1052811D0E3
:101B6000286A20F001002862286A20F0040002E0C0
:101B7000286A40F001002862E06898B1FFF718FC7D
:101B800006460BE0286A40F004002862F0E7FFF701
:101B90000FFC811B41F2883081428AD8286A800775
:101BA000F5D50DE0FFF704FC064606E0FFF700FC64
:101BB000811B41F28830814296D8286A8007F5D48B
:101BC0001FB1E86920F08050E861E06900287DD00D
:101BD000012809D0022807D040F2AF2146A003F027
:101BE00091FBE069002871D06868C0F38100022889
:101BF000E0696CD0022805D0C8F86090FFF7D8FBE8
:101C00000446A3E0206A30B1504504D04FF42E7151
:101C100039A003F077FB606A70B3B0F5802F2BD04A
:101C2000B0F5002F28D0B0F5402F25D0B0F5801F9B
:101C300022D0B0F5A01F1FD0B0F5C01F1CD0B0F54A
:101C4000E01F19D0B0F5001F16D0B0F5101F13D04B
:101C5000B0F5201F10D0B0F5301F0DD0B0F5401FEB
:101C60000AD0B0F5501F07D0B0F5601F04D040F285
:101C7000B92121A003F046FB4746C8F86090FFF762
:101C800097FB064604E0FFF793FB801B02285AD817
:101C900028688001F7D4206A50450FD1A06838B178
:101CA000B0F5003F04D040F2CF2113A003F02AFB8F
:101CB0006868A16820F4003008436860D4E908012E
:101CC0000843696821F47411084301E051E041E0E0
:101CD0006860C7F860B0FFF76BFB044604E0FFF7ED
:101CE00067FB001B02282ED828688001F7D540E04A
:101CF00000004242001002402E2E2F447269766589
:101D000072732F53544D3332463178785F48414CCB
:101D10005F4472697665722F5372632F73746D33EB
:101D200032663178785F68616C5F7263632E63003E
:101D3000800442420C00002000700040FFF738FB96
:101D4000001B022802D90320BDE8F88F2868800113
:101D5000F4D40EE00128F7D06868226A00F48031DC
:101D6000914204D1616A00F47010884201D00120D0
:101D7000EAE70020E8E710B5401EB0F1807F01D30C
:101D8000012010BD4FF0E02460610F21601702F0C8
:101D900053FE0020A06107202061002010BD704785
:101DA0007047000070B50C46054600683D49884202
:101DB00004D040F2C3713CA003F0A4FA2068B0F54F
:101DC000006F05D020B140F2C47137A003F09AFA39
:101DD0006068B0F5806F05D020B140F2C57132A0C7
:101DE00003F090FAA06868B1B0F5807F0AD0B0F532
:101DF000007F07D0B0F5407F04D040F2C6712AA022
:101E000003F080FAE068FF2804D940F2C77126A0E9
:101E100003F078FA2069B0F5805F05D020B14FF467
:101E2000F96121A003F06EFA606938B1B0F5005F86
:101E300004D040F2C9711CA003F064FAE069B0F567
:101E4000804F05D020B140F2CA7117A003F05AFAB2
:101E500095F83C00012822D0012085F83C00E0687C
:101E6000A26820F440701043626820F48060104340
:101E7000226820F400601043226920F4805010434F
:101E8000626920F400501043E269002120F4804090
:101E900010432A68506485F83C10002070BD022071
:101EA00070BD0000002C01402E2E2F447269766513
:101EB00072732F53544D3332463178785F48414C1A
:101EC0005F4472697665722F5372632F73746D333A
:101ED00032663178785F68616C5F74696D5F6578D0
:101EE0002E6300002DE9F047044600682E4E2F4F68
:101EF000DFF8BC800D464FF08049B0420AD048451B
:101F000008D0B84206D0404504D040F2867129A0DE
:101F100003F0F8F9286890B1102810D020280ED0CE
:101F200030280CD040280AD0502808D0602806D08D
:101F3000702804D040F287711EA003F0E3F96868AE
:101F4000802805D020B14FF4F1611AA003F0DAF92E
:101F500094F83C00012825D0012284F83C2002207E
:101F600084F83D00206843688168D5F800C023F0FC
:101F700070034CEA030CC0F804C02068B04205D0DE
:101F8000484503D0B84201D0404504D16B6821F0E8
:101F900080010B43836084F83D20002084F83C00DE
:101FA000BDE8F0870220FBE7002C01400004004060
:101FB000000800402E2E2F447269766572732F53ED
:101FC000544D3332463178785F48414C5F447269F2
:101FD0007665722F5372632F73746D333266317866
:101FE000785F68616C5F74696D5F65782E6300006F
:101FF00010B504003AD03049206888420DD0B0F1C5
:10200000804F0AD02D49884207D02D49884204D0FC
:1020100040F213112BA003F075F9A06860B11028ED
:102020000AD0202808D0402806D0602804D04FF4D9
:102030008A7124A003F066F9206950B1B0F5807F61
:1020400007D0B0F5007F04D040F215111DA003F0B9
:1020500059F9A06930B1802804D04FF48B7119A0D0
:1020600003F050F994F83D0010B107E0012010BDD5
:10207000002084F83C00204600F040F8022084F85C
:102080003D00211D206801F0F9FF012084F8460081
:1020900084F83E0084F83F0084F8400084F8410052
:1020A00084F8420084F8430084F8440084F8450032
:1020B00084F83D00002010BD002C014000040040C9
:1020C000000800402E2E2F447269766572732F53DC
:1020D000544D3332463178785F48414C5F447269E1
:1020E0007665722F5372632F73746D333266317855
:1020F000785F68616C5F74696D2E630008B5006875
:10210000224A2349904208D1886940F400608861DE
:10211000886900F40060009008BDB0F1804F11D0D4
:102120001C4A90421DD1C86940F00200C861C869CC
:10213000002200F00200009002211D20FFF7C8F9E4
:102140001D201FE0C86940F00100C861C869002275
:1021500000F00100009002211C20FFF7B9F91C20BB
:1021600010E00D4A9042D7D1C86940F00400C86120
:10217000C869002200F00400009001211E20FFF732
:10218000A7F91E20BDE80840FFF770B9002C0140F8
:102190000010024000040040000800402DE9F0411A
:1021A000074600681A4C1B4D1B4E4FF08048A0425A
:1021B0000AD0404508D0A84206D0B04204D040F230
:1021C000CF1116A003F09EF897F83D00012802D029
:1021D0000120BDE8F081022087F83D003868C16821
:1021E00041F00101C1603868A04205D0404503D0EC
:1021F000A84201D0B04204D1816801F0070106294C
:1022000003D0016841F0010101600020E1E7000016
:10221000002C014000040040000800402E2E2F44F6
:102220007269766572732F53544D33324631787824
:102230005F48414C5F4472697665722F5372632F19
:1022400073746D3332663178785F68616C5F74697E
:102250006D2E63002DE9F047054690F83C000C46D2
:1022600001283CD04FF0010985F83C90022085F808
:102270003D0020684FF480574FF40058B84215D005
:10228000404513D090B1102810D020280ED030280F
:102290000CD040280AD0502808D0602806D07028DA
:1022A00004D041F23241A8A003F02CF828688168DC
:1022B00021F0770121F47F418160B24A2068B04962
:1022C000B14BD6134FF0804C50287CD00FDC202827
:1022D00004D007DC0028FBD010284DD122E10220D9
:1022E000BDE8F0873028F9D04028F6D1EFE060282B
:1022F0006AD04FF4405A70284ED0B8423DD0404585
:10230000EBD1286888420AD0604508D0904206D0B8
:10231000984204D041F25D418BA002F0F3FFA06827
:1023200050B1B84208D0404506D0504504D04FF4D3
:10233000A35185A002F0E6FF6068B04209D040B129
:10234000022806D00A2804D041F261417EA002F0A2
:10235000D9FFE0680F2804D941F262417AA002F067
:10236000D1FFD4E90121E368286801F00FFF286854
:10237000816841F480418160A3E028688842FBD0F5
:102380006045F9D09042F7D09842F5D041F23E41F5
:102390006DA002F0B7FF94E0286888420AD060453B
:1023A00008D0904206D0984204D041F2454166A040
:1023B00002F0A8FFA06868B1B8420BD0404509D030
:1023C000504507D001E025E04FE041F248415EA0D2
:1023D00002F098FF6068B04209D040B1022806D0F0
:1023E0000A2804D041F2494157A002F08BFFE0686F
:1023F0000F2804D941F24A4153A002F083FFD4E9E7
:102400000121E368286801F0C1FE2868816841F075
:102410007701B0E7286888420AD0604508D090422A
:1024200006D0984204D041F2714147A002F06AFF01
:102430006068B04209D040B1022806D00A2804D012
:1024400041F2744140A002F05DFFE0680F2804D91A
:1024500041F275413CA002F055FFE26861682868CE
:1024600002F03AF85021286829E0286888420AD00A
:10247000604508D0904206D0984204D041F2814194
:1024800031A002F03FFF6068B04209D040B102289D
:1024900006D00A2804D041F284412BA002F032FF7A
:1024A000E0680F2804D941F2854127A002F02AFFF5
:1024B000E2686168286802F020F86021286801F06D
:1024C0006FFE85F83D90002085F83C0008E72868FD
:1024D00088420AD0604508D0904206D0984204D085
:1024E00041F2914118A002F00DFF6068B04209D09E
:1024F00040B1022806D00A2804D041F2944112A02B
:1025000002F000FFE0680F2804D941F295410EA0C7
:1025100002F0F8FEE2686168286801F0DDFF402102
:102520002868CCE7286888420AD0604508D09042E5
:1025300006D0984204D041F2A44103A002F0E2FE8A
:1025400021682868BBE700002E2E2F44726976654B
:1025500072732F53544D3332463178785F48414C73
:102560005F4472697665722F5372632F73746D3393
:1025700032663178785F68616C5F74696D2E6300D4
:10258000002C01400004004000080040704770B576
:102590000446006801694FF00005C943890715D456
:1025A000C168C943890711D4E91E01610120207760
:1025B000206880698007204602D0FFF7E7FF04E02B
:1025C00000F0E0F8204600F058FA2577206801690D
:1025D000C943490717D4C168C943490713D46FF0E9
:1025E00004010161022020772068806910F4407F97
:1025F000204602D0FFF7CAFF04E000F0C3F82046EF
:1026000000F03BFA257720680169C943090716D411
:10261000C168C943090712D46FF0080101610420A1
:1026200020772068C0698007204602D0FFF7AEFF00
:1026300004E000F0A7F8204600F01FFA2577206894
:102640000169C943C90617D4C168C943C90613D46F
:102650006FF010010161082020772068C06910F434
:10266000407F204602D0FFF791FF04E000F08AF897
:10267000204600F002FA257720680169C943C9079E
:1026800008D1C168C943C90704D1891E0161204628
:1026900000F08AFA20680169C943090609D4C168B3
:1026A000C943090605D46FF0800101612046FFF798
:1026B00076FB20680169C943490609D4C168C9434A
:1026C000490605D46FF040010161204600F0C0FAD0
:1026D00020680169C94389060BD4C168C9438906CA
:1026E00007D46FF0200101612046BDE87040FFF77C
:1026F00057BB70BD00B585B00021009101910291DA
:10270000039100681A4B1B490222984211D1886933
:1027100040F0040088618869039200F0040004908E
:102720008815CDE9000269461348FEF71FFC05B085
:1027300000BDB0F1804FFAD1886940F0080088618F
:102740008869694600F0080004904FF48060CDE984
:1027500000020A480392FEF709FC0949486820F480
:10276000407040F0E06040F400704860DFE7000037
:10277000002C01400010024000080140000C014004
:1027800000000140704700002DE9F04116000D46A1
:1027900004460CD0042E0AD0082E08D00C2E06D0E9
:1027A0003C2E04D041F227015FA002F0ABFD286867
:1027B000602806D0702804D041F228015AA002F007
:1027C000A1FDA86830B1022804D041F2290156A029
:1027D00002F098FD286930B1042804D041F22A01A2
:1027E00051A002F08FFD94F83C0001280ED001208A
:1027F0005B495C4A5C4B84F83C0087074EB1042E71
:1028000028D0082E49D00C2E46D167E00220BDE822
:10281000F081206888420AD0B84208D0904206D0A1
:10282000984204D041F234013FA002F06BFD2946EA
:10283000206801F0BDFC2068816941F008018161D8
:102840002068816921F004018161206881692A6919
:10285000114320E0206888420AD0B84208D0904254
:1028600006D0984204D041F245012FA002F04AFD63
:102870002946206801F006FD2068816941F4006165
:1028800081612068816921F48061816120688169AA
:102890002A6941EA0221816142E0206888420AD027
:1028A000B84208D0904206D0984204D041F2560176
:1028B0001DA002F027FD2946206801F051FD206887
:1028C000C16941F00801C1612068C16921F00401BA
:1028D000C1612068C1692A69114320E020688842EB
:1028E0000AD0B84208D0904206D0984204D041F2B3
:1028F00067010DA002F006FD2946206801F09EFD4B
:102900002068C16941F40061C1612068C16921F496
:102910008061C1612068C1692A6941EA0221C161FF
:10292000002084F83C0072E72E2E2F4472697665F1
:1029300072732F53544D3332463178785F48414C8F
:102940005F4472697665722F5372632F73746D33AF
:1029500032663178785F68616C5F74696D2E6300F0
:10296000002C0140000400400008004010B50400A5
:102970003AD03049206888420DD0B0F1804F0AD05B
:102980002D49884207D02D49884204D040F2135186
:102990002BA002F0B7FCA06860B110280AD0202854
:1029A00008D0402806D0602804D040F2145124A05A
:1029B00002F0A8FC206950B1B0F5807F07D0B0F5D7
:1029C000007F04D040F215511DA002F09BFCA069CD
:1029D00030B1802804D040F2165119A002F092FCC8
:1029E00094F83D0010B107E0012010BD002084F8EC
:1029F0003C00204600F040F8022084F83D00211DF4
:102A0000206801F03BFB012084F8460084F83E007A
:102A100084F83F0084F8400084F8410084F84200C4
:102A200084F8430084F8440084F8450084F83D00AD
:102A3000002010BD002C01400004004000080040B0
:102A40002E2E2F447269766572732F53544D333294
:102A5000463178785F48414C5F4472697665722FE1
:102A60005372632F73746D3332663178785F6861A7
:102A70006C5F74696D2E6300704770472DE9F047F5
:102A800005460068374E384FDFF8E0800C464FF0BF
:102A90008049B04206D15CB3042C2CD0082C2DD038
:102AA0000C2C1ED0484507D114B3042C23D0082C7D
:102AB00024D00C2C15D00AE0B84206D1C4B1042CA5
:102AC00019D0082C1AD00C2C0BD04045ECD040F279
:102AD000995127A002F016FC54B1042C0BD0082CFD
:102AE0000CD095F8410001280BD00120BDE8F087FB
:102AF00095F83E00F7E795F83F00F4E795F84000B9
:102B0000F1E702202CB3042C26D0082C27D085F81E
:102B1000410001222146286801F0E6FA2868B04207
:102B200003D1416C41F4004141642868B04205D0B2
:102B3000484503D0B84201D0404504D1816801F036
:102B40000701062903D0016841F00101016000205E
:102B5000CCE785F83E00DCE785F83F00D9E785F84B
:102B60004000D6E7002C014000040040000800406F
:102B70002E2E2F447269766572732F53544D333263
:102B8000463178785F48414C5F4472697665722FB0
:102B90005372632F73746D3332663178785F686176
:102BA0006C5F74696D2E63002DE9F041DFF8788069
:102BB00004460168D8F80000814229D11B480188E9
:102BC000491C89B201800025194E64290ED3058065
:102BD000184F0120F96888477068804738780228C4
:102BE00004D1F968884714A001F016FF00F0C4FB77
:102BF0001649C87C01280BD18889401C80B2888185
:102C0000B0F5967F04D38D817068804701F002F89B
:102C10002168D8F80000814203D1BDE8F04102F0FC
:102C200073BCBDE8F081000070010020B0000020FE
:102C30008400002038000020B7A2D2A9D6B8CABEAE
:102C4000B5C631B7B4D7AA0D0A00000010000020A5
:102C5000704738B5044690F83E0020281CD181B159
:102C60007AB194F83C00012816D0012084F83C0089
:102C70002063204601F05CFE002803D1216B01296E
:102C800001D0012038BD21680A684A680092CA68EC
:102C900042F01002CA6038BD022038BD10B510499C
:102CA00000680968884219D10D4800F035F80D48D0
:102CB000C168042088470C4881680C4888470CA0EC
:102CC00001F0AAFE09481E2241680548FFF7C1FF2E
:102CD00010480068016821F00401016010BD000087
:102CE000440200203800002064000020C0000020C2
:102CF0006D61696E2064656275673A556172742012
:102D00007265636569766564206461746121210D73
:102D10000A0000008802002010B5044600684169DE
:102D200094F83D20C1F3C011212A0BD151B1416962
:102D300021F080014161606B08B1FDF7BFFE2046C4
:102D400001F0EBFC2068416994F83E20C1F380114A
:102D5000222A0BD151B1416921F040014161A06BA0
:102D600008B1FDF7ABFE204601F0BFFC002010BD0E
:102D700008B501680F480068814219D10168C9434C
:102D8000090702D40168416800910168C9438907B5
:102D900002D401684068009007481E224168054837
:102DA000FFF757FF05480068016821F00401016042
:102DB00008BD000044020020C0000020880200205E
:102DC000F8B5026804461068D168536910F00F0F17
:102DD0004FF0000553D003F0010601F4907737431C
:102DE0005FD0C20705D0CA0503D5226C42F00102AC
:102DF0002264420705D5DA0703D0226C42F00202B2
:102E00002264820705D5DA0703D0226C42F004025F
:102E10002264020707D501F02002324303D0226C5E
:102E200042F008022264226C002A34D0800604D5C5
:102E3000880602D5204601F079FC20684069216CA3
:102E4000C0F38010090700D430B3204601F04DFCD8
:102E50002068416949061BD5416921F04001416163
:102E6000A06BA8B158494163A06BFDF74BFE002849
:102E700011D0A06B416B01B0BDE8F040084783065C
:102E80000FD58B060DD52046BDE8F84001F04EBCAD
:102E90002046FFF76DFFF8BD2046FFF769FF256468
:102EA000F8BD266B2023012E52D1C60650D5CE0682
:102EB0004ED5106850680090506940062AD5A16B25
:102EC000086840680004000CEAD0A68D8642E7D965
:102ED000E0858869202818D0D06820F48070D06000
:102EE0002068416921F0010141612068416921F0B8
:102EF0004001416184F83E3025632068C16821F0BB
:102F00001001C160A06BFDF7D9FDA08DE18D401AC5
:102F100081B219E0A08DE18D401A81B2E08D0028C8
:102F2000BED00029BCD0D06820F49070D06020685A
:102F3000426922F00102426184F83E302563206834
:102F4000C26822F01002C2602046FFF7A7FEF8BD5B
:102F500005062BD50D0629D594F83D002128F6D17C
:102F6000A068B0F5805F01D12069B0B1206A411C32
:102F70002162216800784860E08C401E0004000C4B
:102F8000E084E4D12068C16821F08001C16020683C
:102F9000C16841F04001C160F8BD206A0088C0F3FB
:102FA00008005060206A801C2062E5E74006F3D5E7
:102FB0004806F1D5D168204621F04001D16084F85F
:102FC0003D3000F0BDF9F8BDE545000870B50400DE
:102FD00020D0A06930490028304A314B20681BD0EE
:102FE00088420AD0904208D0984206D04FF4B67179
:102FF0002CA002F087F9A069C8B1A069B0F5807F64
:1030000015D0B0F5007F12D0B0F5407F0FD040F260
:103010006D1109E0012070BD884208D0904206D0B1
:10302000984204D040F271111EA002F06BF9A06822
:1030300038B1B0F5805F04D040F2731119A002F0EE
:1030400061F994F83D00002520B984F83C502046F1
:1030500000F046F8242084F83D002068C16821F47F
:103060000051C160204601F0BDFB2068016921F4D8
:10307000904101612068416921F02A014161206885
:10308000C16841F40051C1602564202084F83D00EE
:1030900084F83E00002070BD00380140004400402C
:1030A000004800402E2E2F447269766572732F53AC
:1030B000544D3332463178785F48414C5F447269F1
:1030C0007665722F5372632F73746D333266317865
:1030D000785F68616C5F756172742E630000000038
:1030E0002DE9F04186B000250095019502950395E4
:1030F0000446404F01684048022203233F4EB94234
:1031000022D1816941F480418161816901F480416A
:103110000491816941F0040181618069694600F090
:10312000040004901002CDE9000203933046FDF73D
:103130001DFF3015CDE90005694630460295FDF7C3
:1031400015FF06B0BDE8F0812D4FB942F9D1C16934
:1031500041F40031C161C16901F400310491816918
:1031600041F0040181618069694600F00400049027
:103170000420CDE9000203933046FDF7F7FE082056
:10318000CDE90005694630460295FDF7EFFE1E4E7B
:103190001C488027C6E90005C6E9025735614FF48F
:1031A00080587561C6E906583046FDF7A3FD08B1A1
:1031B000FDF7E0FBA6637462134E124844361430E8
:1031C00001C61020A1C6104846F810594430756158
:1031D000C6E90658FDF78EFD08B1FDF7CBFB666327
:1031E0000022032126207462FEF772F92620FEF7E2
:1031F0003DF9A6E7003801400010024000080140F8
:10320000004400406C000240880200207047704774
:103210002DE9F843044690F83D001F4615460E463A
:1032200020284BD1C6B1BDB194F83C00012845D04F
:10323000012084F83C004FF00008C4F840802120B1
:1032400084F83D00FEF7B4F8A5848146E584A068C3
:10325000B0F5805F03D004E00120BDE8F883206969
:1032600020B13546002684F83C800EE00025FAE7C0
:103270008021204601F096FBA0B9ADB115F8010BF5
:1032800021684860E08C401EE084E08C4B464FF0A3
:10329000000200970028EBD14FF04001204601F0DA
:1032A00081FB30B10320D8E736F8020BC0F30800E9
:1032B000E6E7202084F83D000020CEE70220CCE79E
:1032C000F7B5044690F83D00202831D1019969B343
:1032D00062B394F83C0001282AD0012084F83C0015
:1032E0002162A284E28400252564212084F83D0027
:1032F000636B10489862636B0F48D862636B0F482A
:103300001863606B134645632668606B321DFDF7DA
:10331000A7FD21686FF04000086084F83C502068E9
:10332000416941F0800141610020FEBD0120FEBDE8
:103330000220FEBDB3460008E1460008F54500083E
:10334000044900680968884202D10348806900473F
:103350007047000044020020C00000207047FEE7D4
:103360000348817B012902D1C17302F0D1B97047B2
:103370001000002000F0C8BD10B50D4C20780328C7
:1033800014D16168022088470A494889401C80B2EC
:103390004881B0F57A7F09D300204881A1680220D6
:1033A000884705A001F038FB0120207010BD000007
:1033B0003800002010000020B7A2D2A9D6B8CABE9B
:1033C000B5C631B9D8B1D50D0A000000012809D021
:1033D00002280AD0094A04280AD005280AD0084839
:1033E000806800470121074806E02021064803E0E5
:1033F000102100E020211046FDF774BF00100140AD
:10340000A4000020000C014000080140012804D065
:10341000022806D0054880680047002201210448A0
:1034200002E0002220210348FDF78CBFA400002009
:10343000000C014000080140012804D0022806D0F9
:1034400005488068004701221146044802E0012235
:1034500020210348FDF776BFA4000020000C0140A6
:10346000000801400D4808B5416941F00101416182
:103470004069002200F00100009011461020FEF784
:1034800027F81020FDF7F2FF002211461120FEF769
:103490001FF8BDE808401120FDF7E8BF001002400A
:1034A0002DE9F04F85B000246948009401940294FE
:1034B0000394816941F010018161816901F010017B
:1034C0000491816941F020018161816901F020014D
:1034D0000491816941F004018161816901F0040175
:1034E0000491816941F0080181618069DFF864A17C
:1034F00000F00800049001224FF47C415046FDF793
:1035000021FFDFF854B1002262215846FDF71AFF6F
:10351000012248F210015846FDF714FF0022302125
:103520005046FDF70FFFDFF8349100220521484691
:10353000FDF708FF4FF6304001250226CDE90005D2
:10354000CDE9024669465046FDF710FD0F20CDE952
:103550000004694650460294FDF708FD41F201005F
:10356000CDE90004694658460294FDF7FFFC48F295
:103570007200CDE90005CDE9024669465846FDF7DF
:10358000F5FC4FF080080327CDE9008769465846CF
:10359000FDF7ECFC0520CDE90005CDE902466946C2
:1035A0004846FDF7E3FC44F202008DE8310069462D
:1035B0004846FDF7DBFC4FF40840CDE900076946BB
:1035C0004846FDF7D3FC43F2F830CDE900046946E4
:1035D00048460294FDF7CAFC214E4FF4A070CDE995
:1035E0000006694602945046FDF7C0FCCDF8008005
:1035F000CDE9016569465046FDF7B8FC6802CDE9A2
:10360000000769465046FDF7B1FCE802CDE9000627
:10361000694602945846FDF7A9FC0420CDE9000450
:10362000694610480294FDF7A1FC002202211720F0
:10363000FDF74EFF1720FDF719FF00220221282079
:10364000FDF746FF2820FDF711FF05B0BDE8F08F1C
:10365000001002400010014000080140000C014031
:10366000000021100014014010B596B000240F9402
:1036700010941194129413941C2108A81494FCF72C
:103680006AFD20216846FCF766FD2A48284901604A
:1036900040F2CF21C0E9011440F2CF71C0E9031418
:1036A0008021C0E90541FEF7A3FC08B1FDF762F9EE
:1036B0004FF480500F900FA91E48FEF7CBFD08B1C4
:1036C000FDF758F91B48FFF751F908B1FDF752F91A
:1036D000139413A917481494FEF704FC08B1FDF7DE
:1036E00049F9602008904FF47A70CDE909040B94F1
:1036F0000C940D94002208A90E480E94FFF744F88C
:1037000008B1FDF737F900944FF40050CDE90440BB
:10371000029401940394694606480794FEF742FB1D
:1037200008B1FDF727F90348FEF7E4FF16B010BD16
:10373000002C0140E000002010B58EB0002407945A
:10374000089409940A940B941C2168460C94FCF785
:1037500002FD1F484FF08041016040F2CF21C0E9D7
:10376000011440F2CF71C0E903148461FEF740FCFC
:1037700008B1FDF7FFF84FF48050079007A91448EF
:10378000FEF768FD08B1FDF7F5F81148FFF7EEF810
:1037900008B1FDF7EFF80B940BA90D480C94FEF758
:1037A000A1FB08B1FDF7E6F8602000904FF47A70B5
:1037B000CDE901040822694605480494FEF7E4FFB8
:1037C00008B1FDF7D7F80248FEF794FF0EB010BD20
:1037D0002801002010B586B00024174800940194F9
:1037E0000294039404941349059401604721C0E9AD
:1037F000011441F28731C0E9031480218161FEF791
:10380000F7FB08B1FDF7B6F84FF480500090694619
:103810000948FEF71FFD08B1FDF7ACF8049404A9B0
:1038200005480594FEF75EFB002801D0FDF7A2F8DD
:1038300006B010BD000400407001002010B586B035
:1038400000241748009401940294039404941349AB
:10385000059401604721C0E9011440F2E731C0E955
:10386000031480218161FEF7C3FB08B1FDF782F8E4
:103870004FF48050009069460948FEF7EBFC08B110
:10388000FDF778F8049404A905480594FEF72AFB8F
:10389000002801D0FDF76EF806B010BD000800400A
:1038A000B80100200C4810B50A4901604FF4E1311D
:1038B0004160002181600C22C160C0E90412816175
:1038C000C161FFF783FB002803D0BDE81040FDF77E
:1038D00051B810BD00380140000200200C4810B55E
:1038E0000A4901604FF416514160002181600C22A9
:1038F000C160C0E904128161C161FFF767FB002864
:1039000003D0BDE81040FDF735B810BD00440040BD
:10391000440200207CB50024364D00944FF4007121
:1039200028460194FDF7B2FC012855D09DF800000F
:103930008DF800004FF480712846FDF7A7FC0128A0
:103940004CD09DF801008DF8010080212846FDF73C
:103950009DFC012844D09DF802008DF80200402112
:103960002846FDF793FC01283CD09DF803008DF814
:10397000030020212846FDF789FC012834D09DF85A
:1039800004008DF8040010212846FDF77FFC012873
:103990002CD09DF805008DF8050008212846FDF77C
:1039A00075FC012824D09DF806008DF8060004213E
:1039B0001148FDF76BFC012801D09DF807008DF838
:1039C000070000216846425C491C2244C9B2D4B2B7
:1039D0000829F8D320467CBD8020A9E74020B2E723
:1039E0002020BAE71020C2E70820CAE70420D2E767
:1039F0000220DAE7000C01400014014001460020DB
:103A0000072913D2DFE801F00406080A0C0E1000A3
:103A1000FCF7BABFFCF7CEBFFCF7E2BFFCF7F6BF7E
:103A2000FDF70AB8FDF71EB8FDF732B87047FEE79C
:103A30002DE9FC410026044601964068407807289D
:103A400045D1DFF89080002501AFD8F8081028464E
:103A5000884778556D1CEDB2042DF6D321687F2080
:103A6000087021680720487021680120887060680C
:103A70002168C078C87020680671216804204871E8
:103A800020689DF80710817120689DF80620C2719A
:103A900020689DF8053003729DF80400266840F008
:103AA000F00500F00F00757200900BA000F0B4FF5D
:103AB000206800F097FA1749087021688872216819
:103AC0006820C87214498A6808680C219047BDE8CC
:103AD000FC8100002C0000206D61696E206465622D
:103AE00075673A496E76656E746F727920697320D6
:103AF0003078253032582D3078253032582D3078B6
:103B0000253032582D3078253032580D0A0D0A0DE7
:103B10000A00000064000020C00000202DE9F05FD2
:103B2000044640687F27DFF8D8804078354EDFF8BC
:103B3000D8A0DFF8D8B001254FF06809052822D1B8
:103B4000206807702168052048702068857021680A
:103B500098F80000C87020680571206845712068D9
:103B60008571206800F03EFA30702168C8712168C4
:103B700081F80890DAF80820206809219047DBF8DE
:103B800004100220884760684078062822D1206807
:103B9000077021680620487020688570216898F8B1
:103BA0000000C87020680571206845712068857123
:103BB000206800F017FA30702168C871216881F818
:103BC0000890DAF80820206809219047DBF80810EF
:103BD0000220884760684178192905D181790C480D
:103BE000017145744069804760684078232804D19A
:103BF0002046BDE8F05F00F01DB8BDE8F09F000072
:103C00007C00002064000020C0000020380000205C
:103C100010000020002210210148FDF793BB000096
:103C200000080140012210210148FDF78BBB000074
:103C30000008014010B504467F2021680870216803
:103C4000192048702068012181700E482268007890
:103C5000D07020680171206841710B48216880791B
:103C60008871206800F0BEF9084908702168C871A1
:103C7000216868200872064920688A68BDE81040FB
:103C8000092110477C000020100000206400002063
:103C9000C0000020FDF724FEFEE7000001224021C5
:103CA0000148FDF74FBB00000008014070470000CD
:103CB00010B517A000F0B0FE4FF080421E4B1FA0C1
:103CC00000F0AAFE27A000F0A7FEFCF767FD2F4832
:103CD00001782FA000F0A0FE3648C0688047364823
:103CE00080688047FCF7C2FD34480068C16841F035
:103CF0001001C16032481E2241683048FEF7A9FF1A
:103D000030480068016821F00401016010BD000026
:103D10006D61696E20696E666F3AB6F9CDAFD2BD3E
:103D2000D4BAC2E9D2A9B3B5B8D0B2E2CAFDBEDDF9
:103D3000B0E50D0A000000003333F33F6D61696E9A
:103D400020696E666F3A536F6674576172655F568D
:103D5000657273696F6E2069732056252E31660D6A
:103D60000A0000006D61696E20696E666F3AD0C20C
:103D7000B0E6C2E9D2A9B3B5B8D0B2E2CAFDBEDDA1
:103D8000B3F5CABCBBAF0D0A000000007C000020E8
:103D90006D61696E20696E666F3A4D79496E69741E
:103DA0002E41646472657373206973204F782564B3
:103DB0000D0A0000B0000020940000204402002002
:103DC000C0000020880200200849087801280CD192
:103DD0004878401CC0B248700A79904205D1002250
:103DE0000A7001230B7488714A707047100000201C
:103DF00010B50446406800F0F5F801461D48017012
:103E0000606802787E2A2BD1027A682A28D11A4B60
:103E1000C2781B789A4223D1C2798A4220D1407855
:103E2000042805D1154801214171616809790170A3
:103E300060684078072802D12046FFF7F9FD6068E6
:103E40004078052809D0062807D0192805D023284E
:103E500003D0022801D0312802D12046FFF75EFEB0
:103E60000021084662685054491CC9B21E29F9D382
:103E700010BD0000640000207C00002048000020ED
:103E800010B5002202210448FDF75CFABDE810409D
:103E90000120FDF74BB800000008014010B50122D9
:103EA00002210448FDF74EFABDE810400120FDF75D
:103EB0003DB80000000801407047704770B50546E6
:103EC00005480C464169884722462946BDE87040AE
:103ED0000248FFF7F5B90000C000002044020020AE
:103EE00010B504460648426990472046FCF73EF963
:103EF000214682B2BDE810400248FFF7E1B9000058
:103F0000C00000204402002003484FF07A52D11430
:103F1000C3680120184700009400002070B51546C2
:103F2000082835D8B1F5FA6F32D8002930D00A22E6
:103F3000184C012818D002282AD1174E3068C162C7
:103F4000B1FBF2F0F160FCF74AF92946FCF715F9EC
:103F5000FCF74AF980B2A0803168486300213046FE
:103F6000BDE87040FEF78ABD0C4E3068C162B1FBFF
:103F7000F2F0F160FCF733F92946FCF7FEF8FCF7A4
:103F800033F980B260803168C86308213046E7E7C2
:103F900070BD00008C000020E000002028010020FF
:103FA00010B5002810D140210848FDF76FF90849E5
:103FB00030B10120887107A0BDE8104000F02CBD91
:103FC0000020887105A0F7E710BD00000010014037
:103FD00048000020B9D8CBF80D0A0000BFAACBF8E2
:103FE0000D0A0000024600200146535C491C18449B
:103FF000C9B2C0B20629F8D37047FDF7DFB930B5B2
:104000008FB028216846FCF7A6F814210AA8FCF70F
:10401000A2F80120010400248DE8130004904FF45D
:10402000E010CDE90810022507956846FDF764FC0D
:1040300058B90F20CDE90A056802CDE90C400221EC
:104040000AA80E94FDF7D4FA08B1FCF793FCFDF72B
:10405000EBFB0FB030BD70470148FEF798BA000087
:10406000280100200148FEF792BA000070010020EC
:104070000148FEF78CBA0000B8010020F0B50268D4
:10408000164C174D174E4FF08047A04205D0B8424E
:1040900003D0A84201D0B04203D122F070034A6895
:1040A0001A43A04205D0B84203D0A84201D0B04282
:1040B00003D122F44073CA681A434B6922F080028C
:1040C0001A4302608A68C2620A688262A04201D111
:1040D0000969016301214161F0BD0000002C01402C
:1040E000000400400008004070B50446164816461B
:1040F0000D4684420DD0B4F1804F0AD0134884425B
:1041000007D01348844204D041F6095111A001F0B0
:10411000F9F865B1042D0AD0082D08D00C2D06D071
:104120003C2D04D041F60A510AA001F0EBF805F04D
:104130001F000121226A81408A432262216A86404F
:104140003143216270BD0000002C0140000400409A
:10415000000800402E2E2F447269766572732F532B
:10416000544D3332463178785F48414C5F44726930
:104170007665722F5372632F73746D3332663178A4
:10418000785F68616C5F74696D2E630010B5846838
:1041900042EA032224F47F440A432243826010BD92
:1041A000826822F070020A4342F007018160704782
:1041B0002DE9F0470446006A0D4620F00100206218
:1041C000216A6768A0692A6820F0730042EA000843
:1041D000AE6821F00200DFF8709006434C450ED126
:1041E000E86830B1082804D041F6412117A001F059
:1041F00089F8E96826F00800014321F004064C45DF
:1042000019D1A869B0F5007F05D020B141F64E2143
:104210000EA001F077F86869B0F5807F05D020B175
:1042200041F64F2109A001F06DF827F4407168694B
:10423000AF69084307436760C4F818806868606323
:104240002662BDE8F0870000002C01402E2E2F448E
:104250007269766572732F53544D333246317878D4
:104260005F48414C5F4472697665722F5372632FC9
:1042700073746D3332663178785F68616C5F74692E
:104280006D2E63002DE9F0470446006A0D4620F0CC
:1042900010002062206A6768A1692A6821F4E6415B
:1042A00041EA0228A968DFF87C9020F0200040EA6B
:1042B00001164C450FD1E86830B1082804D041F60A
:1042C0008C2119A001F01EF8E96826F0800040EA70
:1042D000011020F040064C451BD1A869B0F5007FC5
:1042E00005D020B141F69A210FA001F00BF86869C2
:1042F000B0F5807F05D020B141F69B210AA001F0E6
:1043000001F8696927F4406040EA8100A96940EA40
:1043100081076760C4F818806868A0632662BDE8FA
:10432000F0870000002C01402E2E2F447269766524
:1043300072732F53544D3332463178785F48414C75
:104340005F4472697665722F5372632F73746D3395
:1043500032663178785F68616C5F74696D2E6300D6
:104360002DE9F0470446006A0D4620F48070206273
:10437000206A6768E1692A6821F0730142EA01084E
:10438000A968DFF87C9020F4007040EA01264C45D3
:104390000FD1E86830B1082804D041F6D72119A020
:1043A00000F0B0FFE96826F4006040EA012020F444
:1043B00080664C451BD1A869B0F5007F05D020B1BF
:1043C00041F6E4210FA000F09DFF6869B0F5807F01
:1043D00005D020B141F6E5210AA000F093FF6969FC
:1043E00027F4405040EA0110A96940EA01176760CC
:1043F000C4F81C806868E0632662BDE8F0870000AE
:10440000002C01402E2E2F447269766572732F5353
:10441000544D3332463178785F48414C5F4472697D
:104420007665722F5372632F73746D3332663178F1
:10443000785F68616C5F74696D2E63002DE9F041EF
:104440000446006A0D4620F480502062206A6668A7
:10445000E1692A6821F4E64141EA0228A96820F4CA
:10446000005040EA01370D4884420ED16869B0F52A
:10447000807F05D020B141F6233109A000F042FF32
:10448000696926F4804040EA81166660C4F81C80A1
:10449000686820642762BDE8F0810000002C0140BC
:1044A0002E2E2F447269766572732F53544D33321A
:1044B000463178785F48414C5F4472697665722F67
:1044C0005372632F73746D3332663178785F68612D
:1044D0006C5F74696D2E630010B5046A036A23F083
:1044E00001030362836923F0F00343EA021324F01B
:1044F0000A020A438361026210BD10B5036A23F009
:10450000100303628469036A24F4704444EA0232AB
:1045100023F0A00343EA01118261016210BD000093
:104520000A4910B5087901280FD14888401C80B28B
:104530004880282809D3002008714880C86880472F
:10454000BDE8104002A000F067BA10BD480000208E
:10455000B9D8CBF80D0A000070B5174D687901285D
:1045600029D10020687115A000F056FA174C7F2061
:104570002168087021680420487021680120887033
:10458000134922680978D17021680871216848713F
:104590002168A87988712068FFF724FD0D4908700B
:1045A0002168C871216868200872A2682068BDE887
:1045B00070400921104770BD48000020B2E9D1AF1A
:1045C000C3C5D7B4CCAC0D0A00000000C000002069
:1045D0007C000020640000200148FDF7DFBD0000E2
:1045E0007001002010B5406A0021C185C184FEF72A
:1045F000BFFB10BD70B5446A2068406994F83D1057
:10460000C0F3C0100025212904D118B1E58420464B
:1046100000F083F82068406994F83E10C0F38010E1
:10462000222904D118B1E585204600F05EF8206CFF
:1046300040F0100020642046FEF79AFB70BD10B5D4
:104640000146406A0968096889061BD40021C185B2
:104650000168CA6822F48072CA6001684A6922F05F
:1046600001024A6101684A6922F040024A61202140
:1046700080F83E10016B012904D10168CA6822F05C
:104680001002CA60016B012902D0FEF7BFFD10BD08
:10469000818DFEF703FB10BD10B5406A016B012947
:1046A00002D0FEF7B4FD10BD818D4908FEF7F6FA81
:1046B00010BD10B50146406A0968096889060CD426
:1046C0000021C18401684A6922F080024A610068C1
:1046D000C16841F04001C16010BDFEF731FE10BD60
:1046E00010B5406AFEF73AFE10BD0168CA6822F4B0
:1046F0009072CA6001684A6922F001024A61016B46
:10470000012904D10168CA6822F01002CA60202180
:1047100080F83E100021016370470168CA6822F0EA
:10472000C002CA60202180F83D10704708B590F89B
:104730003E10222901D0022008BD81684FF4805329
:10474000994201D1026922B1826A99421BD049B1D2
:104750000AE00268816A5268C2F308020A80816A2C
:10476000891C08E0016971B10168496801F07F01A5
:104770001170816A491C8162C18D491E0904090CAE
:10478000C18503D019E001684968F1E70168CA688A
:1047900022F02002CA600168CA6822F48072CA60EE
:1047A00001684A6922F001024A61202180F83E1026
:1047B000016B012903D0FEF729FD002008BD00216F
:1047C00001630168CA6822F01002CA6001680A68C1
:1047D000D20602D50A6849680091818DFEF75EFA1B
:1047E000EBE7000070B5044640684049884204D9B0
:1047F00040F653613EA000F085FDE06838B1B0F5A9
:10480000005F04D040F6546139A000F07BFD2069C0
:1048100050B1B0F5806F07D0B0F5C06F04D040F64E
:10482000556133A000F06EFD60694FF6F3710842E8
:1048300000D120B940F656612DA000F063FD20683C
:104840000169E26821F4405111430161A1682069C6
:104850000143606901432068C26841F20C639A43D6
:104860000A43C26020684169A26921F44071114382
:1048700041612E492068884202D1FCF7EBFF01E03C
:10488000FCF7D8FF00EBC00101EB00116068642267
:104890008000B1FBF0F3B3FBF2F36FF01806734343
:1048A000B1FBF0F5B1FBF0F605EB8305322303EB2A
:1048B0000515B5FBF2F5B6FBF2F605F0F00505EBD4
:1048C0000615B1FBF0F6B1FBF0F0B0FBF2F06FF0C3
:1048D0001801484306EB800003EB0010B0FBF2F038
:1048E000216800F00F002844886070BD20AA4400B1
:1048F0002E2E2F447269766572732F53544D3332C6
:10490000463178785F48414C5F4472697665722F12
:104910005372632F73746D3332663178785F6861D8
:104920006C5F756172742E630000000000380140F6
:1049300037B582B01346039A826283850025044608
:104940000564222084F83E00A16B13488862A16BA5
:104950001248C862A16B12480863A06B45632168C6
:10496000A06B091DFCF77CFA206801684168009182
:1049700084F83C50C16841F48071C160206841698D
:1049800041F0010141612068416941F0400141610C
:1049900005B0002030BD00003F46000899460008E1
:1049A000F54500082DE9F0411E46174688460446A5
:1049B000069D1CE0681C1AD025B1FCF7F9FC801B91
:1049C000A84214D92068C16821F4D071C160206860
:1049D000416921F001014161202084F83D0084F803
:1049E0003E00002084F83C000320BDE8F0812068F0
:1049F000016838EA010004D00020B842DAD0002073
:104A0000F3E70120F9E700000148FEF7D9B90000FB
:104A100044020020FEE700000FB4054B10B503A9C7
:104A2000044A029800F0EAF810BC5DF814FB00009C
:104A300025550008DC0000200907090E002804DBCA
:104A400000F1E02080F80014704700F00F0000F142
:104A5000E02080F8141D704702E008C8121F08C14A
:104A6000002AFAD170477047002001E001C1121FEF
:104A7000002AFBD1704700002DE9FF5F82B00021C2
:104A8000DDE90430020DDDF840B0034318D044F6F0
:104A90001050A2F2FF3242431514119801281FD082
:104AA000A5EB0B00401C5FEA000A4FF000064E4FDA
:104AB000DFF83891B046504615D5CAF1000413E02E
:104AC000119801244AA3012801D16FEA0B01029831
:104AD000119AC0E90031C0E9024206B0BDE8F09F7A
:104AE000CBF10000DFE704460021404A491842EBC1
:104AF0000450CDE9001012E0E00707D032463B46F3
:104B000040464946FBF7A9FC8046894632463B466B
:104B100010461946FBF7A1FC06460F466410002C10
:104B2000EAD1DDE90401DDE90023BAF1000F06DA7C
:104B3000FBF793FC42464B46FBF78FFC05E0FBF787
:104B4000FEFC42464B46FBF7FAFC04460E460022AA
:104B5000284BFBF77BFD03D84FF0FF30014607E001
:104B60000022254B20463146FBF7D0FBFBF756FDD4
:104B7000102409E0002C0ADB0A220023FBF75EFB6D
:104B8000039B30321A55641E50EA0102F2D1641CB4
:104B9000039AC4F111031444119A012A03D001228B
:104BA00008430DD10AE0084304D000204FF0110B58
:104BB000119072E7A3EB0B056D1E0DE05B4504DD64
:104BC0004FF0000205F1010504E003DA4FF00002A6
:104BD000A5F10105002AECD002981199C0E9023133
:104BE000C0E9004579E70000000014400000F03FF4
:104BF000300000000000F0430000E03F2DE9FF4FCF
:104C000095B09A46884606460025EEE1252877D1DC
:104C100000242746F94A0121039400E0044316F8D2
:104C2000013F203B01FA03F01042F7D130782A28E7
:104C300011D06FF02F033078A0F13002092A16D876
:104C4000039A44F0020402EB820203EB4202104496
:104C5000761C0390EFE758F8042B0392002A03DA3E
:104C6000504244F40054039044F00204761C30781F
:104C70002E2816D116F8010F44F004042A280DD06E
:104C80006FF02F023078A0F13003092B09D807EB21
:104C9000870302EB4303C718761CF3E758F8047B3D
:104CA000761C30786C280FD006DC4C2817D068288A
:104CB0000DD06A2814D104E0742810D07A280FD1BE
:104CC0000DE044F400140AE044F4801401E044F4DC
:104CD00040147278824202D104F58014761C761C4E
:104CE000307866280BD013DC582877D009DC0028F0
:104CF00075D04528F6D04628F4D047281AD193E13C
:104D000018E0632835D0642879D0652812D18BE16A
:104D1000702873D008DC6728F1D069286FD06E281E
:104D20000DD06F2806D1ACE073282CD0752874D034
:104D3000782853D05246179990476D1C54E1C4F31C
:104D40000250022809D003280DD0D8F800100428FA
:104D50000DD00D6008F1040846E1D8F80010EA17FC
:104D6000C1E90052F6E7D8F800100D80F2E70D70A7
:104D7000F0E718F8041B8DF8001000208DF80100F2
:104D8000EB46012003E058F804BB4FF0FF30610709
:104D90004FF0000102D40DE009F101018946B9424A
:104DA0000FDA8145F8DB1BF809100029F4D108E07F
:104DB00009F1010189468142FADB1BF8091000293B
:104DC000F6D103985346A0EB090721463846179AB7
:104DD00000F080FA284400EB090507E044E008E110
:104DE0000DE01BF8010B524617999047B9F10109E4
:104DF000F7D2534621463846179AF2E039E00A21A5
:104E0000C4F302524FF0000B0091022A06D058F86A
:104E1000040BC117032A09D00AE023E008F10700B8
:104E200020F00702F2E80201904605E000B2C11747
:104E3000042A01D140B2C117002906DA0A4600212E
:104E4000404261EB02012D2202E0220504D52B2213
:104E50008DF80420012203E0E20701D02022F7E7C9
:104E6000914657E00A2100E010214FF0000B00911D
:104E70000BE010214FF0000B44F0040408270091D0
:104E800003E008204FF0000B0090C4F30252022A06
:104E900005D058F8040B0021032A08D008E008F1D7
:104EA000070020F00702F2E80201904603E080B21A
:104EB000042A00D1C0B24FF0000922072AD5327867
:104EC000702A07D0DDF800C08CF0100C5CEA0B0CE7
:104ED00005D00EE040228DF80420012208E050EABF
:104EE000010306D030238DF804308DF8052002220E
:104EF0009146009B83F0080353EA0B030AD150EA62
:104F0000010201D1620705D530228DF804204FF04F
:104F100001097F1E3278582A04D039A20C920CAABB
:104F200002920BE03BA2F9E75B46009AFBF786F999
:104F30000C9B9B5C029A521E0292137050EA010273
:104F4000F2D1029804A9081A00F1200B600702D5DB
:104F500024F4803400E001275F4502DDA7EB0B005D
:104F600000E0002000EB0B01009003984944401A38
:104F70000390E00306D453462146179A039800F0A5
:104F8000A9F90544002706E001A85246C05D17991B
:104F900090476D1C7F1C4F45F6DBE0030CD5534654
:104FA0002146179A039800F095F9054404E0302053
:104FB0005246179990476D1C0099481E0090002991
:104FC000F5DC08E00298029952460078491C0291EB
:104FD000179990476D1CBBF10001ABF1010BF1DC9F
:104FE0005BE100F065F90544761C307800287FF419
:104FF0000DAE19B02846BDE8F08F00000928010069
:10500000303132333435363738396162636465663E
:105010000000000030313233343536373839414200
:105020004344454600000000600700D4062708F10D
:10503000070020F00700F0E80223804603F0004C50
:105040005FEA0C0001D097A009E0200501D596A0E9
:1050500005E0E00701D095A001E0AFF24C0013900D
:10506000307823F0004365280CD006DC452809D0B1
:1050700046281DD047287FD13BE0662818D06728F6
:105080007AD136E00021112F01DB112000E0781CDD
:10509000CDE9000104A90CA8FFF7EEFCDDE90D0144
:1050A0000C9A4FF0000B07F10109109200914EE0AD
:1050B0004FF000400097CDE9011004A90CA8FFF7BC
:1050C000DBFCDDE90D020C9B0F994FF0000B9146C4
:1050D0001093009211B9791C00EB0109B7EB09009C
:1050E00003D4C0F1FF3B07F10109A9EB07000190D0
:1050F00042E0012F00DA01270021112F01DD1120EC
:1051000000E03846CDE9000104A90CA8FFF7B4FC83
:10511000DDE90D010C9A00914FF0000BB946109299
:1051200021070FD4009A4A4503DA914601E0A9F11C
:105130000109B9F1010F05DD109AA9F10101515CD6
:105140003029F4D0B84202DA10F1040F03DA012159
:10515000CDE9011010E0002803DC8344A9EB000135
:1051600002E0411C494500DD8946A0EB0B00401CD4
:1051700001904FF000400290200705D40198484567
:1051800002DB4FF0FF30019000208DF84B000298B9
:105190000DF14B07B0F1004F25D002200C902B20D1
:1051A0000D90029800280CDA404202902D200D90BC
:1051B00007E00A210298FBF72BF83031029007F83C
:1051C000011D0C99481E0C900029F2DC0298002861
:1051D000EFD1791E0D980870307800F0200040F073
:1051E000450007F8020D11A8C01BC01D02901398BE
:1051F000007800B1012000EB0901019801EBE0719A
:10520000029801440398401A401E0390E00306D41C
:1052100053462146179A039800F05CF8054413980A
:10522000007818B15246179990476D1CE00323D5BA
:1052300053462146179A039800F04CF805441BE0AA
:10524000BBF1000F07DB0098584504DD1098179953
:1052500010F80B0001E01799302052469047019852
:105260000BF1010B401E05F10105019004D12E2028
:105270005246179990476D1CB9F10001A9F1010937
:10528000DEDC05E017F8010B5246179990476D1CBC
:105290000299481E02900029F4DC53462146179AD1
:1052A00003989EE62D0000002B0000002000000067
:1052B0002DE9F041044600251E461746880404D413
:1052C00005E039462020B0476D1C641EF9D52846FC
:1052D000BDE8F0812DE9F041044600251E469046C8
:1052E000C80301D5302700E02027880404D505E055
:1052F00041463846B0476D1C641EF9D52846BDE8C6
:10530000F08100000148806800470000A4000020F0
:1053100000EB81008260704770B5044640688047AA
:105320000146E078420702D02288521C2280B1EB6D
:10533000D01F0CD04FF0005202EBB0104FEAB0601B
:10534000C0F3C202E070032A04D361F3C71020F057
:105350003800E070C0B200F00701002506291ED217
:10536000DFE801F0031E407A1D91C0F38011B1EB1C
:10537000D01FA07820F0F0000FD1A070A16809B173
:10538000204688472580A07820F00F00401CA070A0
:10539000E07820F00700401C11E08030A07070BD64
:1053A000C0F38011B1EBD01F0BD0A07820F0F0003B
:1053B0001030A070E168A1B3204688475DE0E0703E
:1053C00070BD2088C828FBD9A07820F0F0005030AC
:1053D000A070E16909B120468847E07820F0070015
:1053E000401DECE7C0F38011B1EBD01F1AD1A078BB
:1053F00020F0F000A070A16809B120468847A0788D
:105400004FF0805101EB30104FEA3070A0702169ED
:1054100009B1204688472580E07820F00700C01CAD
:10542000CDE72AE020883C28CAD9A07800F00F01F7
:10543000012902D0022906D03AE020F0F0003030F5
:10544000A070616904E020F0F0004030A070A16914
:1054500071B3204688472BE0C0F38011B1EBD01F19
:10546000AED0A07820F0F0001030A070E16809B153
:105470002046884720883C281AD22580E07820F0F2
:105480000700801C9BE7C0F38011B1EBD01FA07810
:1054900020F0F00008D16030A070216A00298FD080
:1054A0002046BDE8704008471030A070E168CFE7A3
:1054B000E07820F0070082E770B50D4616460446F6
:1054C0002821FAF748FEA07820F0F0008030A07084
:1054D0006560A8470146E07861F3C71066F386105F
:1054E000E07070BD074B19680A4605E0814202D1A1
:1054F0004FF0FF307047496A0029F7D142621860C7
:105500000020704778000020054810B5046803E0CB
:105510002046FFF701FF646A002CF9D110BD00009E
:105520007800002013B5FF23012269460248FDF7E9
:105530006FFE00981CBD000000020020FBF746FF34
:10554000FEF75DFDFDF7ACFFFDF78CFFFEF7C6F93A
:10555000FEF7A8F9FEF73EF9FEF7EEF8FEF784F83D
:10556000FEF76CF9034840688047034C2068804789
:10557000FCE700007C000020A40000204FF4006144
:105580000148FBF783BE0000000801402DE9F0410F
:10559000204C20791E280AD9FF20A0711E480169DD
:1055A0001E488847BDE8F0411DA0FFF735BA234FDC
:1055B0004FF40046002231463846FBF7C3FE142064
:1055C000FBF7B4FC1E4840688047054601461DA015
:1055D000FFF722FA28004FF0010500D125704FF4A3
:1055E00000711D48FBF752FE012806D16079401C6E
:1055F000C1B2617119A0FFF70FFA01223146384696
:10560000FBF7A0FE1C49A57302200870BDE8F0411D
:10561000FEF700BB1000002064000020C000002046
:10562000B7A2D2A9CAFDC1BFD2ECB3A3A3ACB7B590
:10563000BBD8CAD5BEDD0D0A00000000000801403D
:105640002C000020C5CCB5E3CAFDBEDDA3BA30787E
:1056500025780D0A00000000000C0140CAB5BCCA44
:10566000BCECB2E2B5BDD2A9C6BFCAFDC1BFA3BAE8
:1056700025640D0A000000003800002070B5134CAE
:1056800060792179884206D10120207410A0FFF7AB
:10569000C3F96079A071207C012815D1FEF7C2FA08
:1056A00000252574A5731149E573E574032008707E
:1056B0000F4801690F4888470FA0FFF7ADF96581D2
:1056C00065712571A571E57070BD000010000020A6
:1056D000C6A4B4F8BCC6CAFDBACBB6D46F6BA3AC33
:1056E000B7B5BBD8CAD5BEDD0D0A00003800002012
:1056F00064000020C0000020B7A2D2A9BDE1CAF812
:10570000A3ACB7B5BBD8CAD5BEDD0D0A00000000FA
:1057100070B51F4CA07B012838D1E07B012835D122
:10572000A0698047E078401CC1B2E17019A0FFF782
:1057300073F96420FBF7FAFBFEF774FA19A0FFF780
:105740006BF90120E074FFF799FFFBF7A7F81A4EF9
:105750004FF40045002229463046FBF7F3FD1420A4
:10576000FBF7E4FBA9111548FBF790FD012806D1D2
:105770006079401CC1B2617111A0FFF74DF9294653
:105780003046BDE870400122FBF7DCBD70BD000073
:1057900010000020C6A4B4F8CAFDC1BF25640D0ADC
:1057A00000000000BCECB2E2B5BDBAECCDE2B4AB97
:1057B000B8D0C6F7310D0A0000080140000C0140C6
:1057C000CAB5BCCABCECB2E2B5BDD2A9C6BFCAFD5F
:1057D000C1BFA3BA25640D0A00000000000000004C
:1057E0000000000001020304060708090000000091
:1057F000010203041458000800000020E00000002B
:10580000584A0008F4580008E00000209006000004
:10581000684A0008010000001000000000000000BD
:105820000024F40000000000000000000000000060
:1058300000000000000000008D550008C93D000870
:105840000000000015390008FD39000801010000C2
:10585000393400080D340008CD3300080000000082
:105860000000FF009D3C0008FD080008A13F000863
:105870005945000821450008000000000100000013
:10588000F13D0008313A0008353C000800000000F6
:1058900000000000B13C000801000000850900087C
:1058A00000000000000000000100000000000000F7
:1058B000753300081D3F0008B93E00087309000851
:1058C0005D0800080000000000000000000000006B
:1058D000D9450008380300204C030020BD3E0008D5
:1058E000E13E0008010000009D3E0008813E0008E6
:0458F00000000000B4
:04000005080000ED02
:00000001FF
